:020000022000DC
:1070000000000420ED6B0600256C0600054F06000D
:10701000296C0600114F0600174F06000000000003
:1070200000000000000000000000000031FF02002E
:10703000316C060000000000CBFF0200DBFF020005
:10704000DDA50600F1090600376C0600376C060066
:10705000376C0600376C0600376C0600376C06008C
:10706000376C0600376C0600376C0600376C06007C
:10707000376C060071A70600376C0600B5160600CF
:10708000376C0600376C0600376C0600376C06005C
:10709000376C0600376C0600376C0600376C06004C
:1070A000376C0600376C0600376C0600376C06003C
:1070B000376C0600376C060000000000000000007E
:1070C000376C0600376C0600376C0600376C06001C
:1070D000376C0600376C0600376C0600376C06000C
:1070E000376C0600376C0600376C060000000000A5
:1070F00000000000376C060000000000376C06003E
:107100000348044B834202D0034B03B11847704736
:107110005067002050670020000000000548064B23
:107120001B1AD90F01EBA301491002D0034B03B185
:10713000184770475067002050670020000000008B
:1071400010B5064C237843B9FFF7DAFF044B13B1AF
:107150000448AFF300800123237010BD5067002066
:10716000000000001057070008B5044B1BB104498C
:107170000448AFF30080BDE80840CFE700000000FE
:107180005467002010570700A3F5803A704700BFEE
:10719000154B002B08BF114B9D46FFF7F5FF002153
:1071A0008B460F461148124A121A45F083F80C4BD1
:1071B000002B00D098470B4B002B00D098470020A5
:1071C000002104000D000B483EF03CFC44F010FE92
:1071D000200029000AF024FF3EF031FC00000800E6
:1071E000000000007D1F0300000004205067002005
:1071F00088710120A5BA0600024B186803681B6954
:10720000184700BFEC070700F8B50E480E4D0F4CAD
:1072100000F068FF06460B4800F06EFF2F88002143
:107220003C440A46BB1882429BB202D101B12B807A
:10723000F8BDB3F5027FF9D2B35C04F8013B01322B
:107240000121EFE7846B0020706700207267002047
:1072500070B50646ADF5027D0E480D46144600F0A9
:1072600066FFA0B1230A8DF800608DF801408DF80B
:10727000023035B12CB1224629460DF1030044F00D
:10728000FFFE04480123E21C694600F03FFF0DF5B4
:10729000027D70BD906B0020F7B5164D164C174956
:1072A000174E284601F01CF92846164D164922466D
:1072B00000273EF0C2FB4FF40073144900971222DE
:1072C000284600F0F5FE2846114D224631463EF094
:1072D000B4FB104900974FF400730C22284600F0CD
:1072E000E7FE22463146284603B0BDE8F0403EF0B6
:1072F000A4BB00BF9C6B002000600020D4050700E9
:1073000025800200906B002075840200F9050700BB
:10731000846B00201E06070010B501210B2008F029
:10732000A5FD00210B2008F0DBFD4FF4E1312148E1
:1073300006F0CEFF4FF4FA7008F042FD1E4800F050
:1073400097F91E4800F074F900F0B6F91C4B1C6860
:10735000236820469B68984770B901210B2008F0EC
:10736000BFFD642008F02CFD00210B2008F0B8FDC3
:10737000642008F025FDF0E723681249DB6B204606
:1073800098471149114801F0C9F811490F4801F017
:10739000C5F8104A0E48032100F0D0FE23680B49BF
:1073A0001B6D20469847236820465B6DBDE8104062
:1073B000184700BF38790020D9730200F971020024
:1073C000EC07070043060700906B00209C6B002031
:1073D000846B00200972020070B514460D46064603
:1073E00001460E4807F000F8E1B20C4806F0FCFF39
:1073F0000A48210A06F0F8FF2DB124B107482246B9
:10740000294607F033F8054806F03DFF304622468E
:107410002946FFF71DFF002070BD00BF387900200E
:10742000364B1868036870B51B69354C984700F0F7
:1074300083F900F041F958B3236813B908F0AEFCA2
:10744000206008F0ABFC2368C01A47F22F53984223
:1074500003D900F05DF9002323602A4E2A4C2B4DFE
:10746000304607F0C9F8A8B92388B3F5027F28BFD2
:107470002080274C2188022928D92648B0F80130DD
:1074800002338B421FDA00F0D3F9002323801DE082
:107490002060E2E7304607F00FF92388B3F5027F5A
:1074A0003CBF5A1C2280218838BFE8540229D7D912
:1074B000B5F8013002338B42D2DA284600F0B8F931
:1074C00000232380CCE7B1F5027FDED208F066FC12
:1074D000044600F0B9FB0138C0B203288CBF4FF45A
:1074E0007A7364230B20B4FBF3F101F0010108F07F
:1074F000F7FCBDE870400A2008F062BCEC0707000A
:107500006C670020387900207A6900207C690020AF
:107510007067002072670020BFF34F8F0549064B4C
:10752000CA6802F4E0621343CB60BFF34F8F00BF21
:10753000FDE700BF00ED00E00400FA0530B5074D9F
:107540004FF47E240346224603CAAA4218605960BB
:10755000144603F10803F6D130BD00BF10E00F0060
:1075600013B5002304466846CDE900333AF0E4FD44
:1075700080B94FF480524FF47E2168463AF098FE6D
:1075800010234FF47E22214668463AF00FFE6846EB
:107590003AF0F0FD02B010BD70B50D4A0D4D1378F4
:1075A00005F8230005EB8304013303F03F03137058
:1075B000094A617013783F2B4FEA112098BF0133BD
:1075C0004FEA1141A070E17098BF137070BD00BF09
:1075D000A96B0020AA6B0020A86B002030B5114BCE
:1075E000114D1A78114B1B7840339142A3EB0203E3
:1075F00028BF11465A4202F03F0203F03F0358BF32
:1076000053420446DBB208460021CAB2904200D879
:1076100030BD1A4402F03F0255F8222044F82120E0
:107620000131F2E7A86B0020AA6B0020A96B0020B3
:10763000014B1860704700BFBC6C002010B5074BB1
:1076400007480024202221461C7044F033FE054BDD
:107650001C60054B1C60054B1C7010BDB86C0020F5
:10766000C46C0020B46C0020B06C0020AA6C002018
:107670000D4B70B418600D48037893B90C4C0D4D48
:107680001A46082102F00106520806B16A40013983
:10769000F8D10133B3F5807F44F8042BF0D10123F6
:1076A000037070BCFFF7CABFC06C0020E46C002000
:1076B000E86C00202083B8ED1FB56846FFF73EFF59
:1076C000084B009A9A420BD19DF80430012B07D148
:1076D0009DF80500B0FA80F0400905B05DF804FBA4
:1076E0000020FAE74641544F1FB56846FFF726FFD2
:1076F000064B009A9A4206D14FF480736846ADF863
:107700000430FFF72DFF05B05DF804FB4641544FF0
:107710001FB56846FFF712FF064B009A9A4205D143
:1077200000236846ADF80430FFF71AFF05B05DF896
:1077300004FB00BF4641544FF0B5354F3B78012B59
:1077400085B027D1334C226822B3334E334D327883
:107750003AB933704FF400232B6008F01FFB304B15
:10776000186021682B6801F500229A4214D8022380
:107770003B702C4B04209961FFF70EFF2A4B1B68CE
:1077800033B100228DF8082002A9012292209847E7
:107790000023337005B0F0BD244E336803B1984721
:1077A000002302A8CDE902333AF0C6FC0028F1D14B
:1077B0002968246801F5805304F50024A3428CBF96
:1077C000641A4FF48054224602A83AF071FD02A8D0
:1077D0003AF0D0FC2B681C442C603368114DA4F5A2
:1077E0000024AC6103B1984708F0D8FA0C4A13683A
:1077F000C31AF92BCED90C4B10601B68002BC9D0D3
:10780000AA69019204220DEB020191209847C1E779
:10781000B86C0020B06C0020AA6C0020B46C002072
:10782000AC6C0020C46C0020C06C0020BC6C00203C
:107830002DE9F04F0229C5B0044640D90378B0F8CD
:107840000100821C8A423ADA0239884237DA103B58
:10785000092B34D8DFE813F00A004900190184012C
:10786000330033009201CB01D401E4010A2826D968
:10787000B34F3B780BB1FFF7E1FEB24BE2781A70E1
:10788000A2885A80D4F80A20D4F806109A60AE4A2A
:10789000596016684A1E0024B2F5F82FC3E9034464
:1078A000C3E905441C774FF001050BD31D7736B1B2
:1078B00002238DF810302A4604A99020B04745B025
:1078C000BDE8F08F01F6FF73A04A3D7023F47F639B
:1078D00023F00F0313609E4B28461C70FFF75CFEDD
:1078E000002EECD08DF81040E5E70728E7D9944941
:1078F0000B78012B0BD1944B1B68002BDFD0914AE6
:107900009269049204A9042291209847D7E7023B88
:10791000012BD4D8E21C02448A4DD4F8037012F82B
:10792000043C12F802EC12F8018C6A6814F800901A
:10793000A0F1080C1FFA8CF617FA8CFC944502D8BB
:10794000B6F5F07F0CD903232B7707230B707E4B02
:107950001B68002BB3D004228DF8102001221FE0F9
:10796000D01B864288BF86B26869B8420CD2062313
:107970002B77754B1B68002BA1D007228DF81020A8
:10798000CDF8110005220BE00DD900230493CDF8AA
:107990001520CDF811706C4B1B68002B8FD009227D
:1079A00004A99020B1E70734DFF8ACB1B446A24691
:1079B0004FF0FF32BCF1010C11D243EA092343EA34
:1079C000086343EA0E43D243934211D005232B7739
:1079D0005D4B1B68002B3FF472AF0622BCE71AF820
:1079E000010B5040C0B25BF8200080EA1222E1E7B0
:1079F00003230B702B69DFF860C1DB43314620465F
:107A0000013920D2DB432B61EB683344EB606846DD
:107A10000023CDE900333AF08FFB50B9DFF83CB1D9
:107A200007F5002AB046B8F1000F15D168463AF0C4
:107A3000A1FB00233E4404936B686E61CDF8116096
:107A4000CDF81530A7E710F8012B5A40D2B25CF8F8
:107A5000222082EA1323D3E7B8F5807FC14628BFEE
:107A60004FF480794B465246214668463AF09EFBD9
:107A7000DBF80030CA444C44A8EB0908002BD2D0F4
:107A8000B8F1000FD2D09847E6E72D4C2278032AB0
:107A90007FF415AF2B4B2C4E5D68D9680420A942AA
:107AA000207008D007212170022119773368002B3C
:107AB0007FF452AF03E71A699D68AA420CD00721F0
:107AC000197708238DF8103033682170CDF8112014
:107AD000002B7FF457AFF2E64FF400252F6805F135
:107AE000A64505F5691505F65475AF4208D0187717
:107AF000336807222270002B3FF4E1AE05222BE70A
:107B00000023ADF815308DF817300125114B049383
:107B100004A8CDE906128DF814508DF81650FFF721
:107B20001FFD0523237033682BB18DF800502A46C2
:107B3000694690209847322008F042F9FFF7ECFCA4
:107B4000B86C0020C46C0020C06C0020B06C002019
:107B5000AA6C00204641544FE86C0020BC6C002009
:107B6000FFF76CFD344B1B68002B3FF4A8AE334984
:107B70000022902045B0BDE8F04F18476846FFF757
:107B8000DDFC9DF80630012B2FD19DF80510003942
:107B900018BF01212A4B9DF80420597722B19DF886
:107BA0000520B2FA82F2520926489A7700788DF8B9
:107BB00010005869CDF81100D868CDF81500586844
:107BC000CDF819009869CDF81D00187F9B680993BE
:107BD000194B8DF821001B688DF822108DF8232099
:107BE000002B3FF46CAE1822DAE60021D2E7FFF753
:107BF0007BFD114B1B68002B3FF461AE0022ABE60E
:107C000000210820FFF7C8FC0B4B1B6833B1002292
:107C10008DF8102004A901229020984764208BE75A
:107C2000402104A8FFF7DAFC034B1B68002B3FF44C
:107C300046AE820092B2B3E6C06C00203449070021
:107C4000C46C0020B86C0020014B1878704700BF4E
:107C5000B86C0020704710B55C2104463EF028F94E
:107C6000204610BD0A4A02601F210022C0E90921F6
:107C7000C0E90B22C0E90E22C0E91222C0E9152298
:107C800082860264A0F8442080F84620704700BF36
:107C90005806070000231F22C0E90A23C0E90E335B
:107CA000C0E91233C0E91533036380F8353003644B
:107CB00080F8463070478B6A8362CB6AC3620B6B75
:107CC000036391F8343080F8343091F8353080F81F
:107CD00035308B6B8363CB6BC3630B6C0364B1F880
:107CE0004430A0F8443091F8463080F846308B6C30
:107CF0008364CB6CC364B1F85030A0F850304B6D46
:107D000043658B6D8365704708B5FFF7D4FF08BDE9
:107D100070B5054686B068460E4603F071FCEC6C03
:107D20006846002CCCBF0234002403F0ADFCAB6AE3
:107D30000230241AE41808D4AC62AE64684603F03A
:107D4000A3FCE864012006B070BD0020FBE7036CD3
:107D500010B51BB190F8464084B90233941C1B1B2C
:107D6000846A1B194FF000045DBFC0E90F128362E3
:107D700080F84640204658BF012010BD0433EDE78F
:107D800030B5046C05461CB190F8460080B9023449
:107D9000181D241AA86A24185FBF0120C5E90F2303
:107DA000AC62A5F8441054BF85F84600002030BDF1
:107DB0000434EDE730B5846D002CCCBF04340024CE
:107DC0001D1D641B856A64195DBFC0E915238462AB
:107DD000A0F85010002058BF012030BD70B50546F6
:107DE000806B0E4688B1047814B145F0E9FE841C1E
:107DF000304645F0E5FEAB6A0230241AE4185DBF58
:107E0000AC62AE630120002070BD0446F0E790F83C
:107E10003530826A002B0CBF00230323033B9B18E1
:107E20005FBF8362012380F8353080F8341054BF7F
:107E300018460020704704307047406A704790F839
:107E40003500704738B50446406AC0F11F039342BD
:107E5000154608DB0430204444F012F9636A2B44D1
:107E60006362012038BD0020FCE770B50446406A1B
:107E70000E461D4611460233C0F11F029A420FDB27
:107E800023186A1C1A71821C0630626220445E71DB
:107E90002A4644F0F5F8636A2B446362012070BD02
:107EA0000020FCE770B586B00546684603F0A8FBE5
:107EB000684603F0E9FB022804466846CCBF062664
:107EC000022603F0DFFB2346024631462846FFF731
:107ED000CCFF06B070BD13460A46FF21FFF7C5BFB1
:107EE00030B589B0054608461C461146ADF800007D
:107EF0001A460DF1020044F0C3F8A31C6A46FF21A4
:107F00002846FFF7B2FF09B030BD30B589B005464D
:107F100008461C461146ADF800001A460DF1020055
:107F200044F0AEF8A31C6A4616212846FFF79DFFD1
:107F300009B030BD07B501238DF807100DF1070218
:107F40001946FFF792FF03B05DF804FB70B50546D4
:107F500010460E46144645F033FE2246034631468F
:107F60002846BDE87040FFF780BF70B5054608465B
:107F70000C4645F025FE1D2807D9224628461D231C
:107F8000BDE870400821FFF770BF2246284609214E
:107F9000BDE87040FFF7DABFC16A38B50023044678
:107FA000436229B1026B1AB1BDE83840FFF74ABFFE
:107FB00094F835307BB394F834102046FFF7BAFFBD
:107FC0000546A16C21B12046FFF76CFF2840C5B2E1
:107FD000E16B61B1236C53B194F84620EAB10A46D3
:107FE0002046B4F84410FFF77BFF2840C5B2626D0D
:107FF00042B1A36D33B1B4F850102046FFF785FFAE
:108000002840C5B2A16B21B12046FFF7AEFF284042
:10801000C5B2284638BD0125D3E71A462046FFF7EA
:108020005AFFE2E70C4B10B504460360406838B1D4
:1080300000F0A2FA20B9606810B103685B68984745
:10804000A06838B101F021F820B9A06810B1036828
:108050005B689847204610BD6806070010B50446C7
:10806000FFF7E0FF20460C213DF022FF204610BD27
:10807000064B10B50446C4E9003100230846A3604E
:1080800009B100F074FA204610BD00BF6806070071
:1080900010B50446054B23600023C4E901310846AE
:1080A00009B100F0EDFF204610BD00BF68060700D3
:1080B0002DE9F3410446542098460E4617463DF0FC
:1080C000CBFE9DF820300093054643463A463146A4
:1080D00000F030FB29462046FFF7CAFF204602B0D9
:1080E000BDE8F0810346406808B100F055BA9868D1
:1080F00008B100F0EFBF70470346406808B100F0D8
:108100004DBA986808B100F0E7BF704710B4044654
:10811000406818B15DF8044B00F042BAA06818B18D
:108120005DF8044B00F0DABF5DF8044B704740681F
:1081300008B100F0A2BA70474068704770B50546B4
:1081400040680C46164610B1C9B200F09BFAA86808
:1081500028B13246E1B2BDE8704001F015B870BDFB
:1081600070470000024B186803681B69184700BF7E
:108170004C0B0700024B186803685B69184700BF87
:108180004C0B0700054A0346106810B402681979C1
:1081900054695A1D23465DF8044B184758090700D7
:1081A0000B4B10B50446186821790368621D9B6A61
:1081B00098474FF6FF739842014606D0054B186862
:1081C0000368BDE810409B6A184794F94B0010BD46
:1081D000580907004C0B070010B54C2104463DF030
:1081E00067FE204610BD000010B58AB04B7903939E
:1081F0008B790293CB7901930B7A00934B7A8A7A2D
:108200000549044605A845F0D7FA05A9204607F018
:10821000C8FC20460AB010BD7006070013B5084B15
:108220000446186800909B88ADF804300622694621
:10823000601D43F0F5FE003818BF012002B010BDEC
:10824000C406070008B502790B799A4208D10622C4
:108250000531053043F0E4FEB0FA80F0400908BD76
:108260000020FCE708B502790B799A4208D1062272
:108270000531053043F0D4FE003818BF012008BD99
:108280000120FCE70A4B10B50446186803681B6917
:108290009847236820461B6A984740B1054B2179CF
:1082A00018680368621D5B6BBDE81040184710BD7D
:1082B0004C0B070058090700064A02607F21002284
:1082C000C272027380F84B10C0F80520A0F8092094
:1082D000704700BF9806070010B501710021C172F8
:1082E0000173064C04607F2180F84B101168C0F8C0
:1082F00005109288A0F8092010BD00BF980607005D
:10830000F8B50E461249054607F04BFC327B0024B7
:10831000A24211DD3319A11C5F7B9B7B083B012B23
:1083200007F1FF3711D83946284607F011FC0E3403
:1083300034440026B74201DC2846F8BD14F8011F7A
:10834000284607F086FC0136F4E77C18E0E700BF1A
:10835000344907002DE9F04F0D4685B02249074604
:10836000934607F01EFC0024A1462B7BA34203D8B2
:10837000384605B0BDE8F08F631CDAB255FA83F3D6
:1083800000925B7B2A1992F80D809A1E012A16D959
:10839000063B012B0ED810260234E4B20D34F1B2A4
:1083A00006FB06F22C444FF0000A08F1FF3301915E
:1083B000534506DC009B98445FFA88F4D5E7022613
:1083C000EAE7D9450BD101992046CDE9022303F014
:1083D0005DF90146384607F00FFCDDE9022309F19B
:1083E0000109B2441444E3E73449070010B5002200
:1083F0000446FFF7AFFF204610BD08B50B461146F7
:1084000002799A4207D10622053043F009FEB0FAFC
:1084100080F0400908BD0020FCE710B504460120AB
:108420008840E0721946227304F10D0043F028FEE3
:108430009DF9083084F84B3010BD70B51E46C37AE4
:1084400043F010030446C372007B0D460D30114605
:1084500020442A4643F014FE237B84F84B601D44DD
:10846000257370BDC37A13F0180F14BF01200020CC
:10847000704700000C4B10B504460360406838B1EB
:1084800000F07AF820B9606810B103685B6898471B
:10849000A06838B100F0F9FD20B9A06810B10368F8
:1084A0005B689847204610BDD406070010B5044607
:1084B000FFF7E0FF20460C213DF0FAFC204610BDFE
:1084C000064B10B50446C4E9003100230846A360FA
:1084D00009B100F04CF8204610BD00BFD4060700DB
:1084E00070B5044630200E463DF0B6FC31460546D8
:1084F00000F000FD29462046FFF7E2FF204670BD50
:108500000346406808B100F029B8986808B100F047
:10851000B5BD0148704700BF34490700406808B145
:1085200000F026BD704740687047704700207047D4
:1085300010B5202104463DF0BBFC204610BD0000D4
:1085400010B5054B044640F8043B03F059F80023EE
:10855000E361204610BD00BFE4060700043003F0CD
:108560008FB8043003F08EB8043003F08DB8C369BF
:108570000246581CD0617047C3690246581ED0613C
:10858000704742F60300704790F82000704790F85B
:1085900021007047406A7047806A7047808D70473D
:1085A000436A9A422DE9F041A8BF1A4604468285E3
:1085B000806A92B20E4643F063FD94F82E300BB100
:1085C000636AA38594F8203098060FD5A28E910790
:1085D0000CD51F4B218E186803685D6D0131A38D8A
:1085E000A26AAC4689B2BDE8F0416047DA0609D517
:1085F000A38EDB0706D5164B218E18680368013160
:108600001D6DECE794F83230F3B1124B1868036833
:1086100021465B6A9847104B1D682B6801461F6B0B
:10862000A38D32462846B847094B186803681B6B70
:10863000984748B9094B186803689B68984718B170
:108640002B6828465B6D9847A08DBDE8F08100BF80
:10865000580907001C0A0700EC070700B8090700C3
:1086600038B5054608460C4645F0AAFA21460246AA
:108670002846BDE83840FFF793BF808E003818BF0A
:108680000120704703299CBF00EB810042647047C2
:1086900001867047008E7047008E013080B27047AF
:1086A000806B7047836B994208D2C36B0022914262
:1086B00001D1186870475B680132F8E70020704705
:1086C000114B03600B790371D1F80530C0F8053008
:1086D000B1F80930A0F80930CB7AC3720B7B037371
:1086E00030B501F10D0300F10D0201F1490453F819
:1086F000045B42F8045BA342F9D11B88138091F814
:108700004B3080F84B3030BD9806070038B5044632
:1087100008200D463DF0A0FB0023C0E9005363682C
:108720002BB960602368A0600133236038BDA36863
:108730005860F7E770B504461D461646FFF700FF80
:10874000B5F5007F194B23602B46A8BF4FF400738B
:10875000002163629DF810302684C4E90E11A185C2
:1087600084F82E302163A1862164102204F1440094
:1087700043F0A0FD16F0300F11D02C203DF06CFB23
:108780000B490646022304F1340200F0DBF83046C0
:10879000FFF7EDFE314604F13800FFF7B7FF28463A
:1087A00043F0D8FBA062204670BD00BF0007070061
:1087B000F006070070B50446406800252368AB4208
:1087C00004D80023C4E90033A36070BD46680821C3
:1087D0003DF06EFB01353046F0E70000154B70B5FB
:1087E000044603600025A36B9D4210D304F13805B5
:1087F0002846FFF7DFFFA06A08B143F0B3FB284625
:10880000FFF7D8FF2046FFF790FE204670BDE36BD0
:10881000002295420BD11E683046FFF7ADFE20B90D
:108820001EB1336830465B6898470135DBE75B680B
:108830000132EEE70007070010B50446FFF7CEFF50
:10884000204654213DF034FB204610BD2DE9F04177
:10885000C76C96B00446DDF8708016461D467FB1A1
:1088600003A8FFF72DFF21466846FFF701FC694684
:1088700003A8B8476846FFF7D5FB03A8FFF770FCCD
:10888000A16A42463144284616B0BDE8F04143F0A3
:10889000F7BB70B504460D461146012280F833201F
:1088A00096B01A46FFF77CFE266D86B1294603A8CE
:1088B000FFF706FF21466846FFF7DAFB694603A883
:1088C000B0476846FFF7AEFB03A8FFF749FC16B0B8
:1088D00070BD30B5838E02F00302934297B0044618
:1088E00017D08286B2FA82F2520900EB8202556CEE
:1088F0007DB103A8FFF7E4FE21466846FFF7B8FB09
:10890000694603A8A8476846FFF78CFB03A8FFF752
:1089100027FC17B030BD4FF42450704710B5034BFF
:1089200003600446FFF701FE204610BD1407070050
:1089300010B50446FFF7F2FF20462C213DF0B8FAAF
:10894000204610BD70B504461D461646FFF7F8FDDB
:10895000064B2360B5F5007FA8BF4FF400750023D8
:10896000266265622385204670BD00BF140707009C
:10897000406A7047006A704701857047024B18686B
:1089800003681B69184700BF4C0B0700024B1868AF
:1089900003685B69184700BF4C0B0700064B18685B
:1089A000036810B51B699847044B18680368BDE855
:1089B00010401B6B184700BF4C0B070058090700FD
:1089C000064B1868036810B51B699847044B186874
:1089D0000368BDE81040DB6B184700BF4C0B070075
:1089E00058090700024B186803689B6C184700BFC2
:1089F000580907000C30704768307047024B186800
:108A000003681B69184700BF1C0A0700024B18685F
:108A100003685B69184700BF1C0A0700024B18680F
:108A200003689B69184700BF1C0A0700024B1868BF
:108A300003681B69184700BFB8090700024B186894
:108A400003685B69184700BFB8090700024B186844
:108A500003685B6A184700BFB8090700074B10B5E9
:108A60000446186803681B699847054B19680B682A
:108A70002046DB6C9847204610BD00BF4C0B07001A
:108A800058090700074B10B50446186803681B69AE
:108A90009847054B19680B6820469B6A9847204603
:108AA00010BD00BF4C0B0700B8090700024B186847
:108AB0000368DB6A184700BFB8090700024B186853
:108AC00003689B69184700BFB00C0700024B186889
:108AD0000368DB69184700BFB00C0700024B186839
:108AE00003681B6B184700BFB8090700024B1868E2
:108AF0000368DB68184700BF58090700024B186875
:108B000003681B6A184700BFB00C0700024B1868C7
:108B100003685B6A184700BFB00C0700024B1B6874
:108B2000C3F8F010704700BF4C0B0700024B1B68E6
:108B3000C3F8F810704700BF4C0B0700024B1B68CE
:108B4000C3F8F410704700BF4C0B0700024B1B68C2
:108B5000C3F8EC10704700BF4C0B0700024B1B68BA
:108B6000C3F8FC10704700BF4C0B0700024B1B689A
:108B7000C3F80011704700BF4C0B0700024B186888
:108B80000368D3F89C3018474C0B0700024B186859
:108B90000368D3F8A03018474C0B0700264B70B57C
:108BA0001D682B6886B004469B682846984730B9F4
:108BB00023682046DB689847002006B070BD64201B
:108BC00007F0FEF82B6828469B6998470028EFD1EC
:108BD00005AA2B6801920DF112020092DE6904AA27
:108BE0000DF10E030DF10D012846B0470028DFD12D
:108BF0002B684FF0FF32D96A28466FF04043884710
:108C00000028D5D12B6840F2FF32196B284600238B
:108C100088470028CCD12B680DF10F025B6B0DF15A
:108C20001601284698470028C2D1044B18680368EB
:108C30009B6898470120C0E74C0B07001C0A0700FF
:108C40000A4B10B5044618680368DB689847084B60
:108C500018680368DB68984704F10C00FFF71AF8FE
:108C600004F16800BDE81040FFF714B81C0A0700C3
:108C70004C0B070010B5144B8CB0044618689B8849
:108C8000ADF81830114B05901868036805A91B6AE8
:108C900098479DF8143003939DF8153002939DF882
:108CA000163001939DF817309DF81920009308495C
:108CB0009DF8183007A844F07FFD07A9204606F06C
:108CC00070FF20460CB010BDF00707004C0B0700EA
:108CD000700607000C30FFF71BB870B50368044638
:108CE00008469D6AFFF70CFC2B4601462046BDE86E
:108CF000704018470C30FFF75DB80C30FFF727B80D
:108D00000C30FFF73DB86830FFF768B86830FEF701
:108D1000FBBF10B500F10C042046FEF7F5FF20461E
:108D2000FFF78DF828B920460621BDE81040FFF76F
:108D30006EB810BD2DE9F74300F10C060446683407
:108D40003046FFF729F92046FFF726F90F4BD3F8F5
:108D50000080D8F800303046D3F80C90FFF76BF85D
:108D600005463046FFF769F806462046FFF763F8E8
:108D700007462046FFF761F8C0B200903B46F2B2CA
:108D800029464046C84703B0BDE8F083B80907004C
:108D90007FB5094B1D682B68144601A89E6906F033
:108DA00021FF224601A92846B047044601A806F043
:108DB000B0FE204604B070BDB80907007FB5094B6E
:108DC0001D682B68144601A8DE6906F00BFF2246D9
:108DD00001A92846B047044601A806F09AFE20469D
:108DE00004B070BDB80907007FB5094B1D682B683A
:108DF000144601A81E6A06F0F5FE224601A928467F
:108E0000B047044601A806F084FE204604B070BDB9
:108E1000B809070002290BBF044B054B18681868F6
:108E20000BBF036803685B6B9B6D1847B8090700AD
:108E30005809070038B50546084B45F80C3B044671
:108E40002846FEF70FFF04F16800FEF70BFF06212E
:108E50002846FEF7DCFF204638BD00BF2807070084
:108E600010B5054C2046FFF7E5FF2046034A0449AC
:108E7000BDE810403CF0E1BDE8700020006000203B
:108E8000858E020010B5064B044640F8683BFEF79D
:108E9000E1FE04F10C00FEF7DDFE204610BD00BF30
:108EA0002807070010B50446FFF7ECFF2046C42151
:108EB0003CF0FEFF204610BD10B50B4B19680B6847
:108EC00094B001A8DB6C984701A8FFF7A7F948B157
:108ED00001A8FFF765F9044601A8FFF741F920460C
:108EE00014B010BD7F24F7E7580907004FF4205055
:108EF0007047000010B50446FFF722FB044B2360C7
:108F00000023C4E90833C4E90A33204610BD00BF7A
:108F100000080700018442847047008C7047408C31
:108F20007047406A7047436A994208D2836A0022B8
:108F3000914201D1186870475B680132F8E7002060
:108F4000704738B5044608460D46FFF710FB082069
:108F50003CF082FF0023C0E90053A36A2BB9A06252
:108F6000636AE0620133636238BDE36A5860F7E721
:108F700010B504460846FFF7DFF8014620B1204649
:108F8000BDE81040FFF7DDBF10BD70B50446406876
:108F900000252368AB4204D80023C4E90033A36052
:108FA00070BD466808213CF083FF01353046F0E78C
:108FB00010B504462430FFF7E8FF0023236210BDFC
:108FC000134B70B5044603600025636A9D420BD3C2
:108FD0002046FFF7EDFF04F12400FFF7D6FF2046FF
:108FE000FFF7A3FA204670BDA36A002295420BD179
:108FF0001E683046FFF7C0FA20B91EB1336830460C
:109000005B6898470135E0E75B680132EEE700BF37
:109010000008070010B50446FFF7D2FF20463021B4
:109020003CF046FF204610BD10B5044B044640F806
:10903000043B06F06EFD204610BD00BF140807007B
:1090400010B50446FFF7F0FF204614213CF030FF36
:10905000204610BD38B504462546074B45F8043B6D
:109060000846114602F012FB0146284606F099FD1B
:1090700000232361204638BD14080700406870476C
:1090800003690246581C1061704703690246581E66
:109090001061704738B504461D46FFF7DBFF0C4BE7
:1090A0002360BDF81030E382BDF814302383BDF88F
:1090B000183063834FF480720023C4E90733C4E996
:1090C0000A33C4E90C33A582A284204638BD00BF10
:1090D00024080700C0697047006A70472DE9F04313
:1090E0009846274B1F683B6885B004460E469B6B2D
:1090F000818A38469146984718B9002005B0BDE8E6
:10910000F0833B68A18A5B6C38469847C51EADB2B8
:109110004D45A8BF4D46E069294644F00BF9E06192
:109120000028EAD0237E1A071CD5B8F1000F19D009
:1091300003AA3B680192EAB20092D3F86080628B86
:10914000A18A33463846C0470028D7D09DF80C3056
:10915000012BD2D0E0692A46314642F091FF2562C8
:109160000120CBE75B07C8D53B68EAB20092D3F891
:109170006480628BA18A33463846C047EAE700BF65
:1091800058090700408B7047032908BF42637047A6
:1091900038B5044608460D46FFF772FF08203CF03C
:1091A0005BFE0023C0E90053E36A2BB9E062A36AC7
:1091B00020630133A36238BD236B5860F7E770B5B5
:1091C0000446406800252368AB4204D80023C4E964
:1091D0000033A36070BD466808213CF069FE01358C
:1091E0003046F0E703688B4208D9436800228A4280
:1091F00001D1186870475B680132F8E700207047BA
:10920000F8B50546134B45F8283B04460027A36AEA
:109210009F4210D32846FFF7D2FFE06918B142F011
:10922000A1FE0023E3612846FFF7C9FF2046FFF7B0
:10923000FBFE2046F8BD39462846FFF7D3FF064619
:10924000FFF723FF20B91EB1336830465B689847AB
:109250000137DCE72408070010B50446FFF7D0FF0C
:10926000204638213CF024FE204610BD70B504464F
:10927000036296B0C0690D461946164644F05AF886
:10928000E06110B9206216B070BD01233146226A38
:10929000A38442F0F5FE666B002EF4D0194B0393C5
:1092A0002B798DF81030D5F80530CDF81130B5F8A0
:1092B0000930ADF81530EB7A8DF817302B7B8DF82F
:1092C00018300DF1190205F10D0305F1490153F8AC
:1092D000040B42F8040B8B42F9D11B88138095F8DC
:1092E0004B308DF8573021466846FEF7D1FE69466F
:1092F00003A8B0476846FEF795FE03A8FEF730FFC7
:10930000C1E700BF98060700074B10B5044603608D
:10931000806918B142F026FE0023A3612046FFF7C2
:1093200083FE204610BD00BF3408070010B5044678
:10933000FFF7EAFF204620213CF0BAFD204610BD91
:1093400038B504461D46FFF785FE054B2360BDF882
:109350001030E3820023C4E90633A582204638BDDD
:1093600034080700034A02600022C0E90122C260FB
:10937000704700BF4408070038B5044608460D464C
:10938000FFF77EFE08203CF067FD0023C0E9005394
:10939000A3682BB9A0606368E0600133636038BDE7
:1093A000E3685860F7E7406870474368994208D21D
:1093B00083680022914201D1186870475B680132CE
:1093C000F8E70020704770B5044640680025236820
:1093D000AB4204D80023C4E90033A36070BD4668E3
:1093E00008213CF065FD01353046F0E770B50446D4
:1093F000002563689D4203D3201DFFF7E4FF70BD85
:10940000A368002295420BD11E683046FFF73DFE4F
:1094100020B91EB1336830465B6898470135E8E7EC
:109420005B680132EEE7000038B50546054B45F8AC
:10943000043B0446FFF7DAFF2846FFF7C4FF204647
:1094400038BD00BF4408070010B50446FFF7ECFF25
:10945000204610213CF02CFD204610BD38B50446B6
:109460001D46FFF7F7FD084B2360BDF81030E3827F
:109470000649A58204F1180006F093FB0023C4E915
:109480000933E362204638BD540807003449070019
:10949000808A7047C08A7047406A7047436A994221
:1094A00008D2836A0022914201D1186870475B6834
:1094B0000132F8E70020704738B5044608460D46EB
:1094C000FFF7DEFD08203CF0C7FC0023C0E9005395
:1094D000A36A2BB9A062636AE0620133636238BD9C
:1094E000E36A5860F7E770B50446406800252368D2
:1094F000AB4204D80023C4E90033A36070BD4668C2
:1095000008213CF0D5FC01353046F0E7154B70B52D
:10951000044603600025636A9D4210D304F12405CC
:109520002846FFF7E0FF2846FFF7DDFF04F11800AB
:1095300006F0EFFA2046FFF777FD204670BDA36ADC
:10954000002295420BD11E683046FFF79EFD20B9E0
:109550001EB1336830465B6898470135DBE75B68CE
:109560000132EEE75408070010B50446FFF7CEFFBE
:10957000204630213CF09CFC204610BDA0F8A810ED
:109580007047C0F8AC1070472DE9FF41551E0268C6
:1095900013F8018B526C039304460F469047B8F1C1
:1095A0001E0F2668039BEDB2024617D8B8F1000FD4
:1095B00017D008F1FF311D2913D8DFE801F01C2670
:1095C000292C3437123B3F49544912121242465754
:1095D0005C12125F1263121267126770B8F1520FB9
:1095E00044D006230093D6F8DC5000234246394687
:1095F0002046A84734E0D6F884602A4639462046FB
:10960000B44604B0BDE8F0416047D6F88860F4E79E
:10961000D6F89060F1E70093D6F894602B4639466F
:109620002046B0471CE0D6F89C60E6E70093D6F8E9
:10963000A060F3E70093D6F8A460EFE7D6F8AC603B
:10964000DBE70093D6F8B860E8E7D6F8C060D4E767
:10965000CDE90053D6F8B050434639462046A847D6
:1096600004B0BDE8F081D6F8B460C6E7CDE9005398
:10967000D6F8C450F0E7D6F8C860BEE70093D6F835
:10968000CC60CBE70093D6F8D060C7E70093D6F85C
:10969000D4602B46424639462046B047E0E7D6F82C
:1096A000D860AAE700F18C034FF6FF72B0F8B01053
:1096B000914204D11C309842F8D10020704701201B
:1096C000704708B503689B6A98474FF6FF73C01A46
:1096D00018BF012008BD000038B50A4B04461868C1
:1096E00003681B690D469847204604F18C03B0F8C7
:1096F000B020AA4204D01C309842F8D1002038BDD6
:109700000120FCE74C0B070000F18C0390F9C82006
:10971000002A04DB1C309842F8D100207047012059
:10972000704770B5002300F1B0041C2505FB03F25F
:10973000A65A8E4204D00133052BF7D1002070BD0C
:10974000104490F8C800C009F9E770B5002300F193
:10975000B0041C2505FB03F2A65A8E4203D1104427
:10976000B0F8C00070BD0133052BF3D11720F9E725
:10977000F0B5022A1B8885B004460D4609D003685F
:1097800004220092D3F8DC4002220023A04705B057
:10979000F0BDB0F8A8209A4228BF1A46B030002386
:1097A0001C2606FB03F1475AAF4212D12144A1F80F
:1097B000C020ADF80D20094A106803A90268009185
:1097C0000323D2F894408DF80C3004222946A04798
:1097D000DDE70133052BE4D1EBE700BF4C0B0700BD
:1097E0001FB5ADF80D200268009302248DF80C40DF
:1097F0000323D2F8F04003AAA04704B010BD1FB560
:10980000ADF80920ADF80B30069A036800920424E5
:109810008DF8084002AAD3F8F0400523A04704B011
:1098200010BD1FB5ADF80B30BDF81830ADF80920EC
:10983000ADF80D30079A0368009210248DF80840A7
:1098400002AAD3F8F0400723A04704B010BD1FB50B
:10985000ADF80B30BDF81830ADF80920ADF80D307B
:10986000079A0368009208248DF8084002AAD3F8EA
:10987000F0400723A04704B010BD012380F83C311D
:10988000704700001FB5ADF80A309DF818308DF80C
:109890000C30084B8DF8092001208DF8080018685D
:1098A00002AA03680092D3F8944004220523A0473B
:1098B00004B010BD4C0B070001299CBF00EB8100D8
:1098C000C0F8542170471FB5ADF80D200268009311
:1098D0000A248DF80C400323D2F8F04003AAA047D5
:1098E00004B010BDF0B5002300F1B0051C2606FB46
:1098F00003F42F5B8F4204D00133052BF7D10020F6
:10990000F0BD204480F8C8200120F9E7F0B500241C
:109910001C2500F1B00605FB04F3F75A8F4204D072
:109920000134052CF7D10020F0BDB3330344911D61
:1099300013F8015F01F801599142F9D11C2303FB8F
:10994000040090F8B3300B700120EDE710B5044629
:10995000D0F8400108B142F005FB204610BD10B51B
:109960000446FFF7F3FF20464FF4AE713CF0A0FA37
:10997000204610BD2DE9F0411D4B1C688AB01746EA
:10998000042306220E46054621680096CDE90732DB
:10999000C8200023CDE905300C20CDE90320CDE916
:1099A00001733022D1F8548020466021C04718B19D
:1099B00000200AB0BDE8F08106F0F0F9804606F01C
:1099C000EDF9D5F8AC20A0EB08039342236803D34C
:1099D000DB6D20469847EBE71B69204698472B68CC
:1099E0003A465B6B3146284698470028E7D0E0E7C7
:1099F0004C0B0700F8B503689B6A044698474FF67E
:109A0000FF739842054601D10020F8BD0F4B1E6838
:109A100033680146D3F898303046984706F0BEF9CF
:109A2000074606F0BBF9D4F8AC20C31B9342EBD237
:109A3000336830461B699847236829469B6B20464C
:109A400098470028EDD10120DFE700BF4C0B07004D
:109A50002DE9F341A0F8481104461078089FC4F896
:109A60004C71013084F84A01002084F850011848F4
:109A7000056828680092D0F89480DBB2042228465A
:109A80000E46C047BFB106F089F9074606F086F9D1
:109A9000D4F8AC20C31B934209D22B6828461B691B
:109AA0009847236831469B6B2046984728B94FF664
:109AB000FF73A4F84831002007E094F85001002813
:109AC000E4D04FF6FF73A4F8483102B0BDE8F0814E
:109AD0004C0B07002DE9F047984603689B6A044643
:109AE00098474FF6FF739842054603D10027384642
:109AF000BDE8F08723680146D3F8E0302046984758
:109B000007460028F2D0002604F1B0031C2202FB15
:109B100006F933F80910A94234D1A144D9F8C43068
:109B20003BB910203CF098F98246FFF71BFCC9F8BE
:109B3000C4A01C2303FB0643D3F8C460002ED5D079
:109B40003046B8F1000F21D1FFF750FC23683246B0
:109B5000D3F8E470294643462046B8470028C5D0CC
:109B600023683246D3F8E830294620469847002833
:109B7000BCD02368324629462046D3F8EC30BDE8F5
:109B8000F04718470136052EC1D1AFE7FFF70BFCB0
:109B90004FF000098246D145D8DA49463046FFF7F2
:109BA00004FCFFF76BFA414643F070FE00289ED09C
:109BB00009F10109EFE7F0B5C5B004469DF8286149
:109BC000ADF80D200D4612218DF80C1032461946C5
:109BD0000DF10F0042F054FA23684B9A0092D3F82B
:109BE000F07003AAF31C29462046B84745B0F0BDE3
:109BF000F0B5C5B004469DF82861ADF80D200D46BE
:109C000052218DF80C10324619460DF10F0042F02A
:109C100037FA236800220092D3F8F07003AAF31CED
:109C200029462046B84745B0F0BDF0B500241C25B4
:109C300000F1B00605FB04F3F75A8F4204D001345B
:109C4000052CF7D10020F0BDC9331488C452C118C7
:109C500093788B700120F6E710B500F1C90300F28C
:109C6000551033F8194C8C4201BF1C8814809C7825
:109C700094701C338342F4D1002010BDF0B5002451
:109C80001C2500F1B00605FB04F3F75A8F4204D0FF
:109C90000134052CF7D10020F0BDB433C118C358EE
:109CA00013608B8893800120F6E7F0B504461C25ED
:109CB000002004F1B00605FB00F3F75A8F4204D0F0
:109CC00001300528F7D10020F0BD03F1B90121448E
:109CD000002511F8010F18B90135062DF9D1F3E768
:109CE000BA33E118E35813608B8893800120EBE7C7
:109CF0002DE9F04196B004461C9E1F46B03000236B
:109D00004FF01C0C4FF6FF7E0CFB03F530F805807E
:109D1000F04505D00133052BF6D116B0BDE8F08132
:109D20006019172380F8B220A0F8C030A0F8B01056
:109D300080F8B37005F1B4033168E150E218B388DC
:109D40009380711D731E0DF10A0213F8010F02F8C2
:109D5000010D8B42F9D10F4B1868BA35036804EB3B
:109D60000508D3F89030424601A9984710B96051D0
:109D7000A8F80400D4F85441002CCED0324639461D
:109D800003A8FEF7A9FA03A8A04703A8FEF7E8F97D
:109D9000C3E700BF4C0B07002DE9F04106460F4614
:109DA000904600F1B405002415F8013CBB420CD1EB
:109DB00006224146284642F033F930B91C2303FB02
:109DC0000464B4F8B000BDE8F0810134052C05F15D
:109DD0001C05E9D14FF6FF70F5E72DE9F041064685
:109DE0000F46904600F1B405002415F8013CBB4233
:109DF0000CD106224146284642F012F930B91C2304
:109E000003FB0464D4F8C400BDE8F0810134052CE0
:109E100005F11C05E9D10020F6E738B50A460446ED
:109E200000234FF6FF70B2F8B050854203D092F88D
:109E3000B250012D08D00133052B02F11C02F2D1E2
:109E40002046FEF739FA0AE01C22534303F1B4021C
:109E50000B440A44204693F8B310FEF73DFA20461F
:109E600038BD98B5B0F8A8200368D41DEC46E408C6
:109E7000ACEBC40400AFA546D3F88C406B46A047BA
:109E8000003818BF0120BD4698BD00002DE9F04FF5
:109E900087B002AFC7E901211C46DFF88CA000F1B2
:109EA0008C030546FB6000264FF01B09B5F8B08017
:109EB000C7F800D04FF6FF73984529D0B5F8C030E9
:109EC000DA1D6946D208033B9BB2A4B2A1EBC202E1
:109ED00095469C4228BF1C46BA68ADF809207968AF
:109EE0008DF8089022460DF10B0042F0C9F8DAF81F
:109EF00000000DF1080B0268CDF800B0E31CD2F8A9
:109F000094B0DBB204224146D847D7F800D00136DE
:109F1000FB681C35AB42C9D1002E0CBF3046204631
:109F20001437BD46BDE8F08F4C0B07002DE9F04F0C
:109F300087B002AFC7E900211C4600F5A0730546B3
:109F400000F1B406BB604FF0000836F804ACC7F867
:109F50000CD04FF6FF739A4542D0B389DA1D69469B
:109F6000D208A1EBC202033B95469BB2A4B29C422D
:109F70004FF01D0228BF1C468DF808207A6839680A
:109F8000ADF809200DF10B00224642F079F80023CC
:109F900085F83C31194BD3F800900DF1080BD9F836
:109FA0000020CDF800B0E31CD2F894B0DBB204225C
:109FB00051464846D84795F83C316BB9D9F800303E
:109FC00048461B6998472B6816F8011C5B6B3246A4
:109FD000284698470028EED1D7F80CD008F10108A0
:109FE000BB681C369E42B0D1B8F1000F0CBF404692
:109FF00020461437BD46BDE8F08F00BF4C0B07006C
:10A000002DE9F04F89B002AF042B3B6C7861C7E9B2
:10A0100002211B88C7F804D009D0046804220092EA
:10A02000D4F8DC40A0471C37BD46BDE8F08FBA68C5
:10A0300007326946D208A1EBC20295465C1E4D4B21
:10A0400005220DF108088DF80820D3F800900022B1
:10A0500088F80120A4B20226D9F800304846DB690E
:10A060009847844251D23B6C5B88A3424DD9D9F8C2
:10A07000003021461B6A4846984703689B6805469E
:10A08000984742F6030301349842A4B24ED12846C1
:10A09000FEF702FB2B6884429B68284649D198470B
:10A0A00001210346284639603B61FEF75DFA3B69B2
:10A0B00039680228834614BF0220012098F8012045
:10A0C0000AB988F8010098F801C084451DD106F14D
:10A0D000020A1FFA8AF228F806403A6118FA8AFA48
:10A0E00011B9B3F5245F2FD12846FEF73AFA5A4644
:10A0F0000146504641F0C4FF3E695E44BB68B6B2BB
:10A100000BF1020232449342A6DA022E25D17A697B
:10A110003B6C12681B880A210091D2F8DC40F96878
:10A1200078690422A047D7F804D07CE72B689B68A5
:10A1300028469847B0F5245F03464FF00001B1D0A0
:10A140004FF0020B0120B9E72B6828469B6898471F
:10A150003B69043628F80300D0E7074B186803680A
:10A16000CDF80080D3F89440F968F3B20422A047F8
:10A17000D9E700BF1C0A07004C0B07002DE9F04F80
:10A1800089B002AF052BD7F84080C7F808D0C7E9DF
:10A19000032181461A46B8F800300AD80268042420
:10A1A0000094D2F8DC400622A0471C37BD46BDE82B
:10A1B000F08FF96807316846C908A0EBC1018D46E8
:10A1C00007218DF80810B8F80410B1F5205F0DF1E3
:10A1D000080B0ED0D9F80020B8F800300A21009101
:10A1E000D2F8DC40396906224846A047D7F808D0A3
:10A1F000DBE75C1E063A2A4B92B27A61D3F800A0E4
:10A2000008F106027A60A4B20125DAF8003050465F
:10A21000DB699847844234D2B8F80230A34230D97F
:10A22000DAF8003021461B6A5046984703689B685D
:10A2300006469847B8F8043083421BD13046FEF7F3
:10A2400093F97B69984215D13046FEF78AF97A690D
:10A25000796841F0E5FE68B93046FEF75EFE2BF8FE
:10A2600005003046FEF75BFEAB1C9BB204352BF8B5
:10A270000300ADB2FA68EB1C9A4202DD0134A4B2CD
:10A28000C3E7012DA6D0074B18680368CDF800B0CE
:10A29000D3F894403969EBB20422A047A6E700BF87
:10A2A0001C0A07004C0B07002DE9F04F89B002AFE4
:10A2B000062BD7F840A07961BAF80030FA608146E1
:10A2C000C7F810D005D1BAF80420A2F52052012A0F
:10A2D0000ED9D9F8001010220092D1F8DC4079692B
:10A2E0004846A047D7F810D01C37BD46BDE8F08FD0
:10A2F000FA6807326946D208A1EBC20295465C1E95
:10A30000384B112202AE8DF80820D3F800B000229D
:10A310007270A4B20225DBF800305846DB6998471A
:10A32000844247D2BAF80230A34243D9DBF8003066
:10A3300021461B6A584698470268BAF80430BB6049
:10A34000926880469047BB68834230D14046FEF712
:10A350000BF97178022802460CBF0623142301B9B9
:10A36000737071787A6099423B6023D14046FEF762
:10A37000D4FD70534046FEF7D2FDA91C89B20435C6
:10A38000ABB270524046BB60FEF7EBF816FA85F5AB
:10A390007A680146284641F073FED7E901231A4442
:10A3A0003B6895B213FA82F2FB68934202DB0134F8
:10A3B000A4B2B0E7022D09D1D9F80020BAF80030D4
:10A3C0000A210091D2F8DC40102288E7064B186879
:10A3D00003680096D3F894407969EBB20422A04751
:10A3E00080E700BF1C0A07004C0B07002DE9F04F67
:10A3F00089B002AF062B3B6CC7F80CD0C7E904103C
:10A400001B8890460AD0026804240094D2F8DC40ED
:10A410000822A0471C37BD46BDE8F08F07326946C9
:10A42000D208A1EBC202954603F1FF3B704B092213
:10A4300002AE8DF80820D3F800A0002272701FFA37
:10A440008BFB0224DAF800305046DB6998478345DD
:10A4500056D23B6C5B885B4552D9DAF800305946DE
:10A460001B6A5046984703689B68054698473B6CB3
:10A470009B880BF1010983421FFA89F92B6879D176
:10A480009B682846984742F60303984249D12846DC
:10A49000FEF702F9814500F09A802846FEF764F83D
:10A4A0007178022802460CBF0723152301B9737087
:10A4B0007178BA6099427B6022D126F804902846D0
:10A4C000FEF762F8A11C89B20BF1020B7054E11C7B
:10A4D00089B2284626F801B0FEF743F805341FFA82
:10A4E00084FB16FA84F4BA680146204641F0C8FDA0
:10A4F000BA687B685A4494B213FA82F2904567DADC
:10A50000022C6AD17A693B6C12681B880A2100917F
:10A51000D2F8DC40D7E904100822A047D7F80CD0C5
:10A5200078E72B6828469B68984742F602139842C2
:10A530004DD126F804902846FEF71AFA0234A4B248
:10A54000A8EB04081FFA88F91FFA80F8C8452846C6
:10A5500028BFC84606EB0409FEF70CFA014642463E
:10A560004444484608F1020841F08AFDA4B286F846
:10A570000180C5E79B682846984742F60303984246
:10A5800025D12846FDF7F0FF022820D1B8602846E3
:10A59000FDF7E7FF3B6CBA680146181D41F040FD2E
:10A5A000A8B926F804902846FDF7F8FF0234A4B2B3
:10A5B000A8EB04081FFA88F91FFA80F8C845284656
:10A5C00028BFC84606EB0409FDF7E6FFC6E7D946F3
:10A5D00009F1010B1FFA8BFB34E7064B186803687F
:10A5E0000096D3F894503969E3B20422A84795E75E
:10A5F0001C0A07004C0B07002DE9F043012B97B014
:10A60000044602AF0E461546E8460BD00368042206
:10A610000092D3F8DC4018220023A0475437BD46EF
:10A62000BDE8F0833B6FB0F83E111B7831B3DB0718
:10A6300024D5224B1868036801391B6A9847002209
:10A6400081461C2104F1B00001FB02F330F803C085
:10A65000B4452ED103F1B4022344224493F8B3103D
:10A66000381DFDF739FE4846B4F84431D4F840218E
:10A67000391DFEF70EF9381DFDF772FD0023073571
:10A68000A4F83E31A4F84431ED086B46A3EBC503B2
:10A690009D4619238DF80830094B186802AA0368F3
:10A6A0000092D3F89440042201233146A047C546C6
:10A6B000B4E70132052AC7D1E0E700BF1C0A070052
:10A6C0004C0B07002DE9F04F87B002AF032B044677
:10A6D0000D46BA601E46C7F80CD00DD80368042298
:10A6E0000092D3F8DC4016220023A047D7F80CD004
:10A6F0001437BD46BDE8F08FBB6BB3F800A0B3F8CC
:10A7000002B04C4BD3F80080D8F800304046DB69EB
:10A7100098471FFA8AF909F1FF318BB2834206D9B3
:10A7200023680A220092D3F8DC604B4622E0D8F876
:10A73000003040461B6A984703689B6880469847EC
:10A7400042F60303984202D023680B22EAE7404610
:10A75000FDF7A2FF4845F7D178604046FDF714FFAA
:10A7600010F0080F7A680AD1236803210091D3F80A
:10A77000DC601346162229462046B047B6E7B4F8F7
:10A780003E31DBB940463B60FDF704FF014678608F
:10A79000D4F8400142F0CEFD3B687A68C4F840012D
:10A7A000A4F84431A4F83EA1194641F083FDB4F861
:10A7B00044315B4507D023680722B3E79342F6D0C4
:10A7C00023680E21D2E7331F5FFA83FA40465BFA13
:10A7D00083F37B60FDF7DEFE7B6880B28342EADCB8
:10A7E000BB6BD4F840015246191D584441F048FC57
:10A7F000B4F84431B96B9A44BB68A4F844A1073358
:10A800006A46DB08A2EBC3039D4617238DF8083088
:10A8100032460DF1090041F033FC074B186802ACD9
:10A8200002680094731CD2F89440DBB204222946DB
:10A83000A0475BE71C0A07004C0B07002DE9F04F0F
:10A840009BB0012B0E4603921F4620D9249BB3F8E0
:10A85000009000F5A07300F1B404029334F8043CB6
:10A86000B34217D0029B1C349C42F7D1039B1D2B93
:10A870000DD11E238DF81C30294B186807AA0368D8
:10A880000092D3F89440042201233146A0471BB024
:10A89000BDE8F08FD4F810A0BAF1000FE6D0504612
:10A8A000FEF781FD4FF0000B8046C345DADA5946CA
:10A8B0005046FEF77AFD0546FEF7EAFD48452CD2E4
:10A8C0002846FEF7E7FD484527D32846FEF7E4FD76
:10A8D000BB1E0493249B023382464FF0000805936D
:10A8E000D045BFDA41462846FEF7D8FD8346FEF73D
:10A8F00049FC48450ED114F8011C224607A8FDF773
:10A90000EBFC5846DDE9043207A9FEF7AFFC07A8C7
:10A91000FDF726FC08F10108E2E70BF1010BC4E7A3
:10A920004C0B07002DE9F04F8FB002AFC7E90121B2
:10A93000FB60B0F8A830F96807336A46DB08A2EB81
:10A94000C3039D46044607F1180000F059FE02AE0D
:10A950004FF0010A236801964FF420520092D3F879
:10A96000BC50B9684FF6FF7352462046A84778613D
:10A97000002850D03378112B04D001203437BD4645
:10A98000BDE8F08F96F80190A9F10403DBB23B61BA
:10A99000B51D4FF002084FF6FF7B7B69984504DB3D
:10A9A0004FF6FF739B45D5D0E7E7FB68A5F1040A96
:10A9B000F3B930203BF050FA3860BAF80220BAF808
:10A9C0000030009229463A69FEF748FDD7E90010A9
:10A9D000FEF7D2FCBAF802A00AF1010A1FFA8AFABD
:10A9E000BAF1000F08BF4FF0000BC8444D44D4E744
:10A9F00007F1180000F048FE3B699842EAD107F1E0
:10AA0000180000F03FFE3A690146284641F008FB75
:10AA10000028CED0DEE77869B0E72DE9F04F8DB0A1
:10AA2000B0F8A83004AFC7E9042107336A46DB0851
:10AA3000A2EBC3039D4606463869FEF7B4FC0DF150
:10AA40001009F8604FF00008FB68984504DB01200E
:10AA50002437BD46BDE8F08F41463869FEF7A5FCB6
:10AA6000B861FEF715FD0446B869FEF713FDB8603E
:10AA70003368CDF8049042F603020092D3F8A85050
:10AA80007969BB6822463046A847F86170B399F8E7
:10AA90000030092B27D199F801B0ABF10503DBB2E7
:10AAA0007B6009F102054FF0020AFB699A45DFDA83
:10AAB00038203BF0D1F9B5F803300293AB7801931D
:10AAC0002B8800930446691D7B697A68FEF7E2FAD9
:10AAD0002146B869FEF7F0FCB5F803400134A4B292
:10AAE000DA445D44E1E708F10108ADE7F869AFE752
:10AAF0002DE9F04F8FB0B0F8A83002AFC7E90321BD
:10AB000007336A46DB08A2EBC30378629D46F86808
:10AB1000FEF749FC02AEB8604FF0000ABB689A45E8
:10AB200004DB01203437BD46BDE8F08F5146F8689C
:10AB3000FEF73BFCB862FEF7ADFC3862B86AFEF780
:10AB4000ABFC431EF86100257B60FB699D4202DB84
:10AB50000AF1010AE2E7B86A2946FEF79FFC7B6822
:10AB6000B861AB4208D1FEF70DFB00F1010B1FFAF3
:10AB70008BFB3B6AFB6211E0691CB86AFEF78EFC36
:10AB80000446B869FEF7FEFA00F1010B1FFA8BFBD1
:10AB9000002CEED02046FEF7F5FAF862FB6A5B4522
:10ABA00034D37B6A1B680096D3F898403969FB6AF6
:10ABB000786A5A46A04704460028B3D03378052B5C
:10ABC00024D196F801804FEA88037B6106F10209DF
:10ABD0004FF00208A045E4DA20203BF03DF9494659
:10ABE000834631F8023B00933B690222FEF7A8FB43
:10ABF0005946B869FEF7CCFAB9F800B07B690BF199
:10AC0000010B1FFA8BFB98449944E3E701359CE75D
:10AC1000042A15D1B0F848218A4211D190F84A216E
:10AC20001978013A8A420BD1D0F84C2101211170D8
:10AC3000D0F84C211B68C2F80130052380F8503150
:10AC40007047022AF0B51D881ED1002200F1B0061F
:10AC50001C2707FB02F436F804C08C4515D10444C8
:10AC6000A4F8C050B0F848218A420DD190F84A218A
:10AC7000032A09D1D0F84C110A70D0F84C111B8866
:10AC8000A1F8013080F85021F0BD0132052AE0D151
:10AC9000E8E7012A38B5044615460846194612D990
:10ACA000B4F8483183420ED194F84A31052B0AD1C9
:10ACB000D4F84C010370D4F84C010135013041F057
:10ACC000DFF984F8505138BD012A38B504461546DD
:10ACD0000846194612D9B4F8483183420ED194F887
:10ACE0004A31112B0AD1D4F84C010370D4F84C012D
:10ACF0000135013041F0C4F984F8505138BD38B500
:10AD00000446B0F84801884215460FD194F84A111C
:10AD10000B290BD1D4F84C010170D4F84C01194621
:10AD20000130013541F0ACF984F8505138BD38B5E7
:10AD3000044615460846194692B1B4F84831834294
:10AD40000ED194F84A31092B0AD1D4F84C01037082
:10AD5000D4F84C010135013041F092F984F850519A
:10AD600038BD6AB9B0F848318B4209D190F84A3100
:10AD7000132B01BFD0F84C211370012380F8503100
:10AD80007047000070B5054690F8850094B0F8B1A2
:10AD9000104B114C1868B4F84410036801391B6A51
:10ADA000984794F84610064604F1470201A8FDF7BB
:10ADB00093FA94F84D3004F14E0201A93046FDF7A4
:10ADC00068FD01A8FDF7CCF9002385F88530012046
:10ADD00014B070BD1C0A0700AC7100201F4B70B589
:10ADE000044640F8863B03F091F904F1870003F034
:10ADF0008DF91B4B04F1980503F11006186859688A
:10AE00002A4603C20833B3421546F7D141F28833CC
:10AE10001721C4F8AC300023A4F8A810A4F83E31E0
:10AE2000C4F84031A4F8443104F1B40204F5A07030
:10AE30004FF6FF7522F8045C02F8023C02F8013C70
:10AE4000136093809181136113751C328242F1D19A
:10AE5000C4F85431C4F85831204670BD6408070066
:10AE60005C0907002DE9F04F00230446A7B098467F
:10AE70004FF0FF35B0301C264FF6FF7706FB03F28C
:10AE8000825A8A4208BF1D46BA4203F1010318BF25
:10AE900008F10108052BF1D16B1C6AD01C236B4310
:10AEA00003F1B4072344E61993F8B3103246684619
:10AEB000FDF712FAB8F1010F2FD12F4B4FF0000A16
:10AEC000D3F8008042F6030B19E0D8F80030494669
:10AED0001B6A4046984703689B68814698475845D7
:10AEE0000BD1694613A8FDF7EBFB4846002213A9D6
:10AEF000FDF7EFFC13A8FDF733F90AF1010AD8F8C2
:10AF000000304046DB6998471FFA8AF94845DCD88B
:10AF10000023A4F83E31A4F84431D4F85881B8F1A4
:10AF2000000F08D0694613A8FDF7CAFB13A8C04755
:10AF300013A8FDF715F91C2303FB05434FF6FF7219
:10AF4000C3F8B0200022E251B280D3F8C400C3F8A5
:10AF5000C8201721A3F8C01010B103685B68984798
:10AF60001C2303FB05440023C4F8C4306846FDF7E6
:10AF7000F7F827B0BDE8F08F1C0A07002DE9F04F65
:10AF8000A9B000F5A073DFF8E4B00193054600F125
:10AF9000B40A4FF000084FF6FF793AF8041C49450F
:10AFA0003AD0314B18680268D2F89820904704468E
:10AFB00090BB1AF8011C524602A8FDF78DF9DBF888
:10AFC000006008F1010832683046D2699047A7B2A4
:10AFD000B8422ED80022DAF81000A5F83E21A5F8D4
:10AFE00044210AF8022C0AF8012CCAF80020AAF819
:10AFF0000420CAF80620AAF80A2017222AF8049C7E
:10B00000AAF80C2010B10268526890470022CAF8D2
:10B01000102002A8FDF7A4F8019B0AF11C0A9A452A
:10B02000BBD1B8F1000FD4BF0020012029B0BDE88A
:10B03000F08F32683946126A30469047026892684B
:10B040000746904742F6030398420BD102A915A880
:10B05000FDF736FB3846002215A9FDF73AFC15A886
:10B06000FDF77EF80134AEE74C0B07001C0A070021
:10B0700030B5002300F1C8011C2404FB03F28D5CF1
:10B08000AD0703D51044B0F8B00030BD0133052B37
:10B09000F3D10620F9E770B5002300F1B0041C25B8
:10B0A00005FB03F2A65A8E4204D00133052BF7D1DB
:10B0B000002070BD104490F8C800FAE72DE9F04F69
:10B0C00099B002AF044697F880B07A60BBF1010FE7
:10B0D00088461D460DD8122B07D103680422009222
:10B0E000D3F8DC402A460023A0475C37BD46BDE8C4
:10B0F000F08FD7F88430B3F80090964BD3F800A0C7
:10B10000DAF800305046DB69984709F1FF318BB21D
:10B1100083420CD9122DE8D123680A220092D3F879
:10B12000DC602A464B4641462046B047DDE7DAF868
:10B13000003050461B6A984703689B68064698474C
:10B1400042F60303984240F0B9803046FDF7A4FA76
:10B150004845304610D1122D68D1FDF715FA000789
:10B160000ED4236803220092D3F8DC5012224B46FF
:10B1700041462046A847B8E7FDF706FA01075BD528
:10B180003046FDF704FA10F002000FD04146204689
:10B19000FFF781FF030653D423680F220092D3F8F0
:10B1A000DCA020464B461222D047012000221C2161
:10B1B00004F1B00C01FB02F33CF803E0C64569D191
:10B1C000D7F8842002F1020AE218ABF1020BB43383
:10B1D00092F8B3105FFA8BFBE21898B3032084F85F
:10B1E000850084F84610A4F84490E358C4F847302A
:10B1F0009388A4F84B300A2384F8853084F84DB046
:10B200005A46514604F14E0040F03AFF94F885301A
:10B21000122D5B4484F885307FF467AF6D461323AD
:10B220002371012384F88430AD465EE7FDF7ACF965
:10B2300042077FF55AAFA3E7122D7FF456AF90E790
:10B240000020B3E707F10C00FDF746F85B465246D5
:10B2500007F10C013046FDF71CFB07F10C00FCF771
:10B260007FFF122D7FF441AF7B6807336D46DB080B
:10B27000A5EBC3039D46132202AB8DF80820364A86
:10B28000106802680093D2F89440012304224146DA
:10B29000A047C9E70132052A8CD1122D7FF425AFD2
:10B2A0007B6807336D46DB08A5EBC3039D4613227D
:10B2B00002AB8DF808200028B1D1E0E733683046B2
:10B2C0009B689847B0F5245F38D13046FDF74CF9BC
:10B2D000022833D13046FDF744F9028842F60213C2
:10B2E0009A422BD1DAF80030A9F102011B6A5046CC
:10B2F000984703689B680646984742F603039842BE
:10B300001CD100221C2104F1B00001FB02F330F833
:10B3100003C0C44518D103F1B4022344224493F876
:10B32000B31007F10C00FCF7D7FFD7F8843007F112
:10B330000C015A883046FDF7CCFA8EE7122D7FF4C7
:10B34000D4AE23680322E9E60132052ADDD10020CC
:10B35000A3E700BF1C0A07004C0B07002DE9F04FC4
:10B360009DB0984602AFB8F10A0F9246D7F89430D4
:10B3700097F8902079610446C7F80CD00FD1022AC3
:10B3800017D0036804220092D3F8DC404246002321
:10B39000A047D7F80CD06C37BD46BDE8F08F042A23
:10B3A0001ED0036804220092D3F8DC400C22002354
:10B3B000EEE7B3F800904FF0000B864B1D682B684A
:10B3C0002846DB69984709F1FF318BB283420CD9DB
:10B3D00023680A220092D3F8DC5042464B4629E00B
:10B3E000B3F80090B3F802B0E7E70AF107036A4642
:10B3F000DB08A2EBC3039D46B8F10A0F6A460CBFF7
:10B400000B230D2302F8083F2B683A611B6A28467C
:10B41000984703689B6805469847B0F5205F1DD1A3
:10B42000BBF1000F0AD0236804220092D3F8DC504D
:10B430000B224B4679692046A847AAE72846FDF724
:10B4400093F880462846FDF78CF8424601460DF1F8
:10B45000090040F015FE08F1010829E042F6030357
:10B4600098420AF1FF3A40F09A802846FDF712F917
:10B4700048452CD1BBF1000F02D023680B22A9E76D
:10B480002846FDF781F83B6958702846FDF704F916
:10B490003B6958802846FDF767F880462846FDF747
:10B4A00060F84246014603A840F0EAFD08F10408AE
:10B4B0001FFA88F8484B3A69186803680092D3F875
:10B4C000944079695FFA88F30422A04761E728462F
:10B4D000FDF75AF8820702D4236802227AE7284649
:10B4E000FDF755F810F0020012D079692046FFF7F9
:10B4F000D2FD030616D423680F220092D3F8DC3065
:10B5000042461E4620464B46B04701231E4600E0F9
:10B5100006462846FDF742F883B29B4504D32368CC
:10B52000072257E70023F1E780B2A0EB0B0050455C
:10B53000A8BF504683B2BB6004F1B40904F5A07AF9
:10B540004FF001087B6039F8043C7A69934218D1C6
:10B5500019F8011C4A4607F11C00FCF7BDFE7B6888
:10B5600000933B695A46434407F11C012846FDF706
:10B570006DF907F11C00FCF7F3FDBB6898441FFA56
:10B5800088F809F11C09D145DDD1002E92D0396926
:10B590004246201D40F074FD84F88480F9E6B0F541
:10B5A000245F14D12846FDF7E3F983B29B45B6D258
:10B5B0001FFA80F8A8EB0B08D0452846A8BFD04654
:10B5C000FDF7D8F91FFA88F200EB0B013FE74FF0C7
:10B5D00001086FE71C0A07004C0B070010B5054C6B
:10B5E0002046FFF7FBFB2046034A0449BDE8104014
:10B5F0003AF023BAAC710020006000204D9902009F
:10B6000073B51E4B1A88ADF804209B788DF8063070
:10B6100004460E4640F8041B1022002140F04AFE6A
:10B620000023237556B1304642F0CAFA451E002D5C
:10B63000237D1EDB0F2B04D910232375204602B077
:10B6400070BD735D2D2B02D10135023DEFE77219FC
:10B65000002112F8012C8DF8042001A810228DF889
:10B66000053042F0DBFB237DE218013310712375B6
:10B67000EBE7022B8CBF10230223DEE76C090700E7
:10B680000068704704307047007D70472DE9F8432B
:10B69000144D06464C1E4FF02D084FF4A859631C5C
:10B6A00004D100232B700F48BDE8F883375D1022CA
:10B6B0002946380904F048FB1022691C07F00F00E6
:10B6C00004F042FB062C08D00C2C03D829FA04F312
:10B6D000DA0702D40235013CE1E785F80280033540
:10B6E000F9E700BF08730020007970472DE9F04F9B
:10B6F0001E46264B89B0054618689B88ADF81C305D
:10B700002B7A9DF848900690884617460BBBB9F1F6
:10B71000000F14BF4FF0020A4FF0030A2B682846AF
:10B720001B6998471A4BEA881C6800210720236888
:10B730000091CDE9030106A8CDE901101146D3F827
:10B740003CB020465346D84730B1002009B0BDE890
:10B75000F08F4FF0000AE1E7236842461B6C394640
:10B76000204698470028F0D1236832465B6C494652
:10B77000204698470028E8D1236801219B6C204689
:10B7800098470028E1D101202871DFE7BC090700B4
:10B790004C0B0700034B00210171186803689B6C78
:10B7A000184700BF4C0B0700134B2DE9F3411D68F0
:10B7B0002B6801221B6D07460E46284600210024F7
:10B7C00098472B68CDE90044D3F84C8020231A46D3
:10B7D00001212846C04768B92B6801211B6D79718A
:10B7E00086EA010228469847B0FA80F0400902B084
:10B7F000BDE8F0812046FAE74C0B0700C180704796
:10B8000001727047022908BFC260704770B50B4EC5
:10B8100004461C30154604F0D6F9314604F12800E0
:10B8200004F0EAF9314604F1340004F0E5F9236844
:10B83000294620465B69BDE8704018473449070037
:10B840002DE9F0410C4F04460E461C303946154692
:10B8500004F0D2F9314604F1280004F0B4F9394675
:10B8600004F1340004F0C8F92368294620465B69D6
:10B87000BDE8F041184700BF344907002DE9F04109
:10B880000C4F04460E461C303946154604F0B4F9F8
:10B89000394604F1280004F0AFF9314604F13400D0
:10B8A00004F091F92368294620465B69BDE8F04120
:10B8B000184700BF344907007FB5C36B04460D46E7
:10B8C00083B10B6801A89B69984701A904F1340072
:10B8D00004F0EDF918B901A804F01BF912E001A871
:10B8E00004F017F9636A83B1294601A8FCF708FD43
:10B8F00001A904F11C0004F0CDF9064601A804F0EA
:10B9000008F916B9002004B070BD236B6BB129464D
:10B9100001A8FCF76BFD01A904F1280004F0C7F9A8
:10B920000028D8D001A804F0F4F80120EBE70000CB
:10B9300038B50F4B03604FF420030E4D43600123D5
:10B9400003720023C0E90333C0E9053304462946E6
:10B950001C3004F026F9294604F1280004F021F9EE
:10B96000294604F1340004F01CF9204638BD00BF1C
:10B97000780907003449070003688B4208D94368F7
:10B9800000228A4201D1186870475B680132F8E7EB
:10B990000020704770B50446406800252368AB421C
:10B9A00004D80023C4E90033A36070BD46680821B1
:10B9B0003AF07EFA01353046F0E7000010B50A4B48
:10B9C000044640F8343B04F0A4F804F1280004F0E5
:10B9D000A0F804F11C0004F09CF804F11000FFF73B
:10B9E000D9FF204610BD00BF7809070010B50446F6
:10B9F000FFF7E4FF204640213AF05AFA204610BDF6
:10BA00000E4B70B505461868036800221B6D114681
:10BA10000024984705F110066C712B699C4203D3F2
:10BA20003046FFF7B7FF70BD21463046FFF7A4FF51
:10BA300010B103685B6898470134EEE74C0B0700D0
:10BA400003688B4270B504461AD900224068134639
:10BA50008A4245680ED1066883B96560A268824251
:10BA600008BFA36008213AF023FA2368013B236052
:10BA7000304670BD034601322846E9E75D60EDE7D8
:10BA80000026F5E72DE9F041054694B00C46002666
:10BA900001F1100823699E4203D32846FCF70CFCF1
:10BAA00020E031464046FFF767FF0746FCF7DAFC27
:10BAB000F8B1394601A8FCF703FE31464046FFF7CE
:10BAC000BFFF3B6838465B689847236801A9DB6B7A
:10BAD0002046984750B101A92846FCF7F1FD01A87E
:10BAE000FCF73EFB284614B0BDE8F08101A8FCF746
:10BAF00037FB0136CEE72DE9F04F9846ABB0C3686F
:10BB00009DF8D0909DF9D8B004460E4617465BB319
:10BB100003292BD04FF0000A04F11003039322698C
:10BB2000924546D31F2A08D9002104F11000FFF7DF
:10BB300087FF10B103685B6898474C203AF08CF996
:10BB4000424639460546FCF7C7FB08203AF084F91F
:10BB50000023C0E900536369002B58D16061276955
:10BB6000A0617A1C22612FE09A46D5E74246394609
:10BB700004A8FCF7B1FB359BCDF800B04A4631462E
:10BB800004A8FCF74AFC236804A9DB6B204698470D
:10BB900048B104A917A8E468FCF792FD17A8A047CC
:10BBA00017A8FCF7DDFA04A8FCF7DAFA2BB0BDE819
:10BBB000F08F51460398FFF7DFFE424639460546AF
:10BBC000FCF71BFC00B35746042E23D0359BCDF861
:10BBD00000B04A4631462846FCF71FFC2846FCF7D1
:10BBE00041FC0028E2D0E368002BDFD0294604A8FE
:10BBF000FCF766FD394604F11000FFF721FF2B68C2
:10BC000028465B689847BEE70AF1010A87E7A369FF
:10BC10005860A4E7359A5B4649462846FCF70DFC78
:10BC2000DCE7F0B447799DF81040059D9DF9186058
:10BC30002FB1CDE905560494F0BCFFF75CBFF0BC12
:10BC40007047000010B5054C2046FFF771FE2046F6
:10BC5000034A0449BDE8104039F0EFBE30730020BC
:10BC600000600020BDB902004068704743689942F7
:10BC700008D283680022914201D1186870475B683E
:10BC80000132F8E70020704773B5044630203AF0DF
:10BC9000E3F832490546FDF72DF9E56154203AF005
:10BCA000DBF800252E490095064614230222FCF7F6
:10BCB00041FD266254203AF0CFF802231A46294962
:10BCC00000950646FCF736FD666230203AF0C4F86F
:10BCD00025490646FDF70EF9A66254203AF0BCF855
:10BCE00020220423214900950646FCF723FDE06944
:10BCF000E662FCF73CFC206AFCF739FC606AFCF762
:10BD000036FCA06AFCF733FCE06AFCF730FCD4E9AF
:10BD10000701FDF716F9616AE069FDF712F9D4E948
:10BD20000A01FDF70EF9236811491B69204698475F
:10BD30002368294620465B69984723682046DB6ACA
:10BD400098472368E1699B6A204698472368A16A5F
:10BD50009B6A204602B0BDE870401847C209070040
:10BD6000C7090700CC090700D1090700D609070059
:10BD7000DB09070010B50446C06948B1FCF7FCFBBD
:10BD800030B9E06910B103685B6898470023E3614C
:10BD9000206A48B1FCF7F0FB30B9206A10B10368A3
:10BDA0005B68984700232362606A48B1FCF7E4FBB4
:10BDB00030B9606A10B103685B689847002363621A
:10BDC000A06A48B1FCF7D8FB30B9A06A10B103688B
:10BDD0005B6898470023A362E06A48B1FCF7CCFB9C
:10BDE00030B9E06A10B103685B6898470023E362EA
:10BDF00023682046DB6ABDE810401847006AFCF75C
:10BE00002FBC07B50222ADF80610406A0DF10601FD
:10BE1000FCF7C6FB03B05DF804FB10B5044608460A
:10BE2000FCF781FB014628B1236820469B6ABDE8E8
:10BE30001040184710BD2DE9F041002705468846FF
:10BE40003C462B682846DB699847B8420DD92B68D9
:10BE500039461B6A2846984703689B6806469847F8
:10BE6000B0F5205F06D0464503D120462CB9BDE889
:10BE7000F081264601373446E3E7FCF775FB0228DC
:10BE8000204603D1FCF76DFB0088F0E7FCF769FB67
:10BE90004089ECE7074A02600022C0E90122C0E9BC
:10BEA0000322C0E90522C0E90722C0E90922C262D3
:10BEB000704700BFEC09070038B5044608200D465E
:10BEC00039F0CAFF0023C0E9005363682BB96060F2
:10BED0002368A0600133236038BDA3685860F7E78A
:10BEE0002DE9F84F04460D46084604F10408FCF716
:10BEF0003EFB29464046FFF7DFFF082039F0ACFF44
:10BF00000023C0E900536369DBB960612369A06164
:10BF10000133236123682046DB69984700271FFA15
:10BF200080FB2846FCF7FDFFB8420DD82368204669
:10BF3000DB699847594682B22846BDE8F84FFCF7BE
:10BF4000E9BFA3695860E1E739462846FCF7EBFFF3
:10BF50000646FCF70CFB31464046FFF7ADFF236871
:10BF60002046DB69984781B23046FCF791FB3046AA
:10BF7000FCF7FDFA31464046FFF79EFF4FF00009FF
:10BF80003046FCF78DFB484501D80137C9E74946E3
:10BF90003046FCF787FB8246FCF7E9FA51464046FB
:10BFA000FFF78AFF23682046DB69984781B2504635
:10BFB000FCF7E2FC09F10109E2E770B504464068CC
:10BFC00000252368AB4204D80023C4E90033A360F2
:10BFD00070BD4668082139F06BFF01353046F0E747
:10BFE00070B50446406800252368AB4204D800239E
:10BFF000C4E90033A36070BD4668082139F058FFDA
:10C0000001353046F0E7000038B50546064B45F8E7
:10C01000103B0446FFF7AEFE2846FFF7E1FF201D68
:10C02000FFF7CBFF204638BDEC09070010B50446EA
:10C03000FFF7EAFF2046302139F03AFF204610BDD5
:10C0400070B50446002523682046DB699847A8425E
:10C050000BD8201DFFF7B1FF002523699D4213D3A4
:10C0600004F11000FFF7BCFF70BD236829461B6A6E
:10C07000204698470646FCF77FFA18B933683046E1
:10C080005B6898470135DEE763690022954204D179
:10C090001868FCF78DFF0135DFE75B680132F5E7D3
:10C0A00008B5054B05491846FFF7F4FE1846044A43
:10C0B000BDE8084039F0C1BC7073002009C002001F
:10C0C00000600020704700000023C0F80831024BD8
:10C0D000186803681B681847700C0700024B186843
:10C0E00003685B68184700BF700C070003680021F5
:10C0F0005B691847036810B4D3F8A4400023A44632
:10C100001A465DF8044B40F60341604737B50368B3
:10C11000ADF80610D3F8A45002220DF1060341F247
:10C1200005410446A84750B9D4F81832BDF8062096
:10C130001988914203D193F9020003B030BD7F20EA
:10C14000FBE713B5CDE9002303680822D3F8A44028
:10C1500040F601416B46A04702B010BD13B5CDE9D2
:10C16000002303680822D3F8A44042F201016B4681
:10C17000A04702B010BD026810B4D2F8A4400B462C
:10C18000A44606225DF8044B42F2050160471FB544
:10C19000089C8DF804309DF818308DF805309DF816
:10C1A0001C308DF806302368CDF80730A388ADF831
:10C1B0000B309DF824308DF80D309DF828308DF827
:10C1C0000E300368ADF80010D3F8A440ADF802209B
:10C1D0006B460F2242F20601A04704B010BD13B512
:10C1E00003688DF80710D3F8A44001220DF107036E
:10C1F00042F20A01A04702B010BD13B5ADF80330FA
:10C200009DF810308DF805309DF814308DF806300B
:10C2100003688DF80010D3F8A440ADF801206B46F8
:10C22000072242F20B01A04702B010BD13B503680C
:10C230008DF80410D3F8A4408DF8052001AB02223C
:10C2400042F20C01A04702B010BD10B588B00B9CA3
:10C250008DF808309DF828308DF809302368CDF826
:10C260000A30A388ADF80E309DF830308DF81030CC
:10C27000BDF83430ADF81130BDF83830ADF81330BA
:10C28000BDF83C30ADF81530BDF84030ADF8173092
:10C29000BDF84430ADF81930BDF84830ADF81B306A
:10C2A0000368ADF80410D3F8A440ADF8062001AB44
:10C2B000192242F20D01A04708B010BD036810B466
:10C2C000D3F8A4400023A4461A465DF8044B42F27A
:10C2D0000E0160471FB5ADF80430BDF81830ADF859
:10C2E0000630BDF81C30ADF808300423ADF80A3034
:10C2F0000623ADF80C300368ADF80010D3F8A44065
:10C30000ADF802206B460E2242F21301A04704B0A2
:10C3100010BD1946D0F8EC300BB1104618477047E5
:10C32000F0B51D4603688BB016469B6F0F4604465A
:10C330009847731E8DF800700DF10702053613F84B
:10C34000011F02F8011DB342F9D1109B6A1E0DF1C5
:10C350001701013B0F3512F8010F01F8010DAA4238
:10C3600013F8010F0874F6D123682722D3F8A450DC
:10C3700042F227016B462046A84723682046DB6F20
:10C3800098470BB0F0BD13B5531E8DF80010053261
:10C390000DF1070113F8014F01F8014D9342F9D156
:10C3A00003680722D3F8A44042F22B016B46A04752
:10C3B00002B010BD07B503680122D3F88830694682
:10C3C000984703B05DF804FB37B50F4B0446186877
:10C3D0009B880090ADF804300DF106004B1E05312E
:10C3E00013F8015F00F8015D8B42F9D123688DF8E5
:10C3F0000620D3F8A45007226B4640F60D41204694
:10C40000A84703B030BD00BF500B070013B513237E
:10C410008DF806300368ADF80410D3F8A440032269
:10C4200001AB40F20641A04702B010BDC0F80411B4
:10C4300070470023C0F80431704732B190F81D32C4
:10C440009342C6BF9B1ADAB2002280F81D227047C1
:10C45000F0B51A4D89B06F4606460C4605F1200E20
:10C460003B4628686968BC46ACE80300083575455A
:10C470006746F6D1611E04A8013A0F3411F8015F36
:10C4800000F8015DA14212F8015F0574F6D132682F
:10C4900042F21701D2F8A44030462022A04750B9FA
:10C4A0000E9B1033D6F81822125C03F8012D0130D0
:10C4B0001028F7D1012009B0F0BD00BF570B0700CD
:10C4C00003460846D3F8F830114603B1184718461A
:10C4D000704703460846D3F8EC30114603B11847BD
:10C4E0001846704703460846D3F8F430114603B1A6
:10C4F000184718467047D0F8FC302BB1D0F800012F
:10C50000003818BF012070470320704710B54FF462
:10C510004871044639F0CCFC204610BD504B2DE943
:10C52000F0411D68044619B12B6828469B6898475E
:10C530002B68DFF838819B692846984700272B68CD
:10C540002846DB6898472B6820B92846DB69BDE898
:10C55000F04118475B6928469847D4F80831B3F58D
:10C56000817FC6B211DBD4F80431C4F8087163B11D
:10C570002B682846DB699847D4F80401414603F04C
:10C580008FFA2B6828469B699847D4F80821531CDA
:10C590002244C4F8083182F80C6194F80C112A681E
:10C5A000022929D1052BCADDB4F80F1104318B42C1
:10C5B000C5DDD36928469847D4F804314BB12368C8
:10C5C00094F80821D3F8C060264904F58673204604
:10C5D000B0470023D4F80811C4F808312368D3F811
:10C5E000B430013904F20D12C9B2204698472B68C5
:10C5F00028469B699847A2E7042920D1032B9EDD9A
:10C6000094F80E1102318B4299DDD3692846984780
:10C61000D4F804314BB1236894F80821D3F8C060F2
:10C62000114904F586732046B0470023D4F8081159
:10C63000C4F8083123680139D3F8BC30D2E7D4F804
:10C640000431C4F80871002B3FF479AFD369284650
:10C650009847D4F804011022314603F050FAC6E797
:10C66000700C0700350A0700480A0700200A070077
:10C670001346F0B533F8045B1646C5F30132022ABF
:10C6800087B0044616D17788B688FFB23A1FB24207
:10C690002AD1588882B2042AC5F30B012ED1284A28
:10C6A00010680268156A0433F2B2A847002384F8C0
:10C6B0001D3321E0012A1FD190F81D03728800F27A
:10C6C0001E20194620443FF0DBFC728894F81D338D
:10C6D000B4F81E621344DBB284F81D33043BB3424A
:10C6E0000AD104F21E23D4E73A46194600F21E206E
:10C6F0003FF0C6FC84F81D7307B0F0BD052A04D1D5
:10C70000104A10680268D568CDE7062A04D10D4AA0
:10C71000106802681569C6E70B4A0223CDE90323B6
:10C72000002303AAADF8143023680092D3F8945084
:10C73000ADF812000A2305222046A847B6E700BF3D
:10C7400058090700B00C07000100060070B588B05A
:10C7500004460D46164600211F220DF101003FF050
:10C76000A9FD2A4631460DF101008DF800503FF039
:10C7700087FC23682022D3F8A45042F208016B46BC
:10C780002046A84708B070BD70B588B004460D4675
:10C79000164600211F220DF101003FF08BFD2A46B5
:10C7A00031460DF101008DF800503FF069FC23681F
:10C7B0002022D3F8A45042F209016B462046A84734
:10C7C00008B070BD2DE9F74FDFF8F4A0DAF8F030CB
:10C7D0000F4691461BB9002003B0BDE8F08F00243E
:10C7E00004208DF8034039F037FB8046042039F0EF
:10C7F00033FB0646042039F02FFBDAF8F0A003469D
:10C800000546324641460DF10300D047A2469DF849
:10C810000330A3421DDCD8F8000008B139F04AFB10
:10C820004046042139F044FB306808B139F042FB3E
:10C830003046042139F03CFB286808B139F03AFB56
:10C840000421284639F034FBBAF1000FC3D001208F
:10C85000C2E74FEA840BBAF1000F21D129681748CB
:10C8600051F8241001AB3A4601F05EFAFA789DF8CF
:10C8700004309A4214D19DF805203B799A420FD199
:10C880009DF806207B799A420AD1336853F80B3021
:10C890001A68C9F800209B88A9F804304FF0010AF3
:10C8A000336853F80B0008B139F004FB2B6853F8D8
:10C8B0000B0008B139F0FEFA0134A8E7FC7700203C
:10C8C000A07300202DE9F047044600AF8A461646C3
:10C8D0001D4694F81D2294F81C329A4237D205F175
:10C8E000100303F4FC73ADEB030D02238DF800304D
:10C8F0002B1DDBB2ADF80330396AADF801A0ADF8FD
:10C900000550ADF807602A460DF109003FF0B8FB6D
:10C91000D4F8043105F10908E94643B123680E490A
:10C92000D3F8C0505FFA88F26B462046A84794F8C7
:10C930001D32013384F81D32084B186803684246E3
:10C940001B6A494698470020BD46BDE8F08723682A
:10C9500020461B699847BCE7590A0700700C07007E
:10C960002DE9F0430446104683B00B3000F4FC7010
:10C9700000AF0D46ADEB000D01213971A7F8055050
:10C98000FA716846796840F8041B1946161D3FF095
:10C9900077FBD4F80431E8463BB123681649D3F855
:10C9A000C090F2B26B462046C847144B1868036823
:10C9B00032461B6A414698474FF6FF73A4F80E3281
:10C9C0004FF0FF33C4F8103203F0E8F900F57A763F
:10C9D000B4F80E32AB4208D003F0E0F9B04204D212
:10C9E000236820461B699847F2E7D4F810020C37F9
:10C9F000BD46BDE8F08300BF6C0A0700700C07005D
:10CA000007B500238DF8073001220DF1070342F22C
:10CA10002D010348FFF7A4FF03B05DF804FB00BF3E
:10CA2000A073002007B501220DF1070342F22D018A
:10CA300003488DF80720FFF793FF03B05DF804FB70
:10CA4000A07300207FB501238DF800300B68CDF86E
:10CA500001308B88ADF805300DF11701531E0F32F0
:10CA600013F8010F01F8010D9342F9D16B4617221B
:10CA700040F611410248FFF773FF07B05DF804FB71
:10CA8000A073002013B50446684601F0DDF8D4F821
:10CA9000EC3063B1D4F8F4304BB1D4F8F83033B1A2
:10CAA000D4F8F0301BB10121684601F0D0F8684697
:10CAB000012101F0DEF86846012101F0D1F8684655
:10CAC000012101F0DFF82D2101A801F0BEF89DF849
:10CAD000040002B010BD13B5036869461B6A044622
